:020000040000FA
:100000002500690A030466060008800C2800080C15
:100010002900E902090A00000D0C2900E9020E0A74
:10002000000000000305660703042803170A0307FE
:100030000C0A0E0C2900E9021B0A00001F0A030526
:1000400066070304000846040D0C2900E902260A8D
:1000500000000000030528030307460403064605C5
:100060000D0C2900E902320A0000000003042802F6
:1000700043072B0A00086606000802090307000868
:10008000AA0C8801430700080E0C2400040C33005E
:100090006606480A02090307000808022000A402B5
:1000A000F302480A540900080E0C240040008001A5
:1000B00043065E0A010C800143070008A402000207
:1000C0002B00A40200022D00A40200022C006A00F2
:1000D00000080504C10C020040000600080C2400C2
:1000E0006000A402A4076F0A260506054605FF0C5A
:1000F00033006100FA0C810003077A0AF302790ADF
:10010000660066073B09AA0273000A0243078B00D8
:10011000030633050A0243078D00030613050A028E
:0E01200043078C000306530513022600810AD4
:02012E000008C7
:020130000008C5
:021FFE00EB0FE7
:00000001FF
